{
  "address": "0x2c697d6F3a35b694A920895FacE6203Cd39bd1c1",
  "abi": [
    {
      "inputs": [],
      "stateMutability": "nonpayable",
      "type": "constructor"
    },
    {
      "anonymous": false,
      "inputs": [
        {
          "indexed": true,
          "internalType": "address",
          "name": "owner",
          "type": "address"
        },
        {
          "indexed": true,
          "internalType": "address",
          "name": "approved",
          "type": "address"
        },
        {
          "indexed": true,
          "internalType": "uint256",
          "name": "tokenId",
          "type": "uint256"
        }
      ],
      "name": "Approval",
      "type": "event"
    },
    {
      "anonymous": false,
      "inputs": [
        {
          "indexed": true,
          "internalType": "address",
          "name": "owner",
          "type": "address"
        },
        {
          "indexed": true,
          "internalType": "address",
          "name": "operator",
          "type": "address"
        },
        {
          "indexed": false,
          "internalType": "bool",
          "name": "approved",
          "type": "bool"
        }
      ],
      "name": "ApprovalForAll",
      "type": "event"
    },
    {
      "anonymous": false,
      "inputs": [
        {
          "indexed": true,
          "internalType": "address",
          "name": "from",
          "type": "address"
        },
        {
          "indexed": true,
          "internalType": "address",
          "name": "to",
          "type": "address"
        },
        {
          "indexed": true,
          "internalType": "uint256",
          "name": "tokenId",
          "type": "uint256"
        }
      ],
      "name": "Transfer",
      "type": "event"
    },
    {
      "inputs": [
        {
          "internalType": "address",
          "name": "to",
          "type": "address"
        },
        {
          "internalType": "uint256",
          "name": "tokenId",
          "type": "uint256"
        }
      ],
      "name": "approve",
      "outputs": [],
      "stateMutability": "nonpayable",
      "type": "function"
    },
    {
      "inputs": [
        {
          "internalType": "address",
          "name": "owner",
          "type": "address"
        }
      ],
      "name": "balanceOf",
      "outputs": [
        {
          "internalType": "uint256",
          "name": "",
          "type": "uint256"
        }
      ],
      "stateMutability": "view",
      "type": "function"
    },
    {
      "inputs": [],
      "name": "createUpload",
      "outputs": [],
      "stateMutability": "payable",
      "type": "function"
    },
    {
      "inputs": [
        {
          "internalType": "uint256",
          "name": "_uploadId",
          "type": "uint256"
        }
      ],
      "name": "deleteFile",
      "outputs": [],
      "stateMutability": "nonpayable",
      "type": "function"
    },
    {
      "inputs": [
        {
          "internalType": "uint256",
          "name": "tokenId",
          "type": "uint256"
        }
      ],
      "name": "getApproved",
      "outputs": [
        {
          "internalType": "address",
          "name": "",
          "type": "address"
        }
      ],
      "stateMutability": "view",
      "type": "function"
    },
    {
      "inputs": [
        {
          "internalType": "uint256",
          "name": "_uploadId",
          "type": "uint256"
        }
      ],
      "name": "getUploadInfo",
      "outputs": [
        {
          "internalType": "string",
          "name": "",
          "type": "string"
        },
        {
          "internalType": "string",
          "name": "",
          "type": "string"
        }
      ],
      "stateMutability": "view",
      "type": "function"
    },
    {
      "inputs": [
        {
          "internalType": "address",
          "name": "_owner",
          "type": "address"
        }
      ],
      "name": "getUploadsOfOwner",
      "outputs": [
        {
          "internalType": "uint256[]",
          "name": "_uploadsOfOwner",
          "type": "uint256[]"
        }
      ],
      "stateMutability": "view",
      "type": "function"
    },
    {
      "inputs": [
        {
          "internalType": "address",
          "name": "owner",
          "type": "address"
        },
        {
          "internalType": "address",
          "name": "operator",
          "type": "address"
        }
      ],
      "name": "isApprovedForAll",
      "outputs": [
        {
          "internalType": "bool",
          "name": "",
          "type": "bool"
        }
      ],
      "stateMutability": "view",
      "type": "function"
    },
    {
      "inputs": [],
      "name": "name",
      "outputs": [
        {
          "internalType": "string",
          "name": "",
          "type": "string"
        }
      ],
      "stateMutability": "view",
      "type": "function"
    },
    {
      "inputs": [
        {
          "internalType": "uint256",
          "name": "tokenId",
          "type": "uint256"
        }
      ],
      "name": "ownerOf",
      "outputs": [
        {
          "internalType": "address",
          "name": "",
          "type": "address"
        }
      ],
      "stateMutability": "view",
      "type": "function"
    },
    {
      "inputs": [
        {
          "internalType": "address",
          "name": "from",
          "type": "address"
        },
        {
          "internalType": "address",
          "name": "to",
          "type": "address"
        },
        {
          "internalType": "uint256",
          "name": "tokenId",
          "type": "uint256"
        }
      ],
      "name": "safeTransferFrom",
      "outputs": [],
      "stateMutability": "nonpayable",
      "type": "function"
    },
    {
      "inputs": [
        {
          "internalType": "address",
          "name": "from",
          "type": "address"
        },
        {
          "internalType": "address",
          "name": "to",
          "type": "address"
        },
        {
          "internalType": "uint256",
          "name": "tokenId",
          "type": "uint256"
        },
        {
          "internalType": "bytes",
          "name": "_data",
          "type": "bytes"
        }
      ],
      "name": "safeTransferFrom",
      "outputs": [],
      "stateMutability": "nonpayable",
      "type": "function"
    },
    {
      "inputs": [
        {
          "internalType": "address",
          "name": "operator",
          "type": "address"
        },
        {
          "internalType": "bool",
          "name": "approved",
          "type": "bool"
        }
      ],
      "name": "setApprovalForAll",
      "outputs": [],
      "stateMutability": "nonpayable",
      "type": "function"
    },
    {
      "inputs": [
        {
          "internalType": "bytes4",
          "name": "interfaceId",
          "type": "bytes4"
        }
      ],
      "name": "supportsInterface",
      "outputs": [
        {
          "internalType": "bool",
          "name": "",
          "type": "bool"
        }
      ],
      "stateMutability": "view",
      "type": "function"
    },
    {
      "inputs": [],
      "name": "symbol",
      "outputs": [
        {
          "internalType": "string",
          "name": "",
          "type": "string"
        }
      ],
      "stateMutability": "view",
      "type": "function"
    },
    {
      "inputs": [
        {
          "internalType": "uint256",
          "name": "index",
          "type": "uint256"
        }
      ],
      "name": "tokenByIndex",
      "outputs": [
        {
          "internalType": "uint256",
          "name": "",
          "type": "uint256"
        }
      ],
      "stateMutability": "view",
      "type": "function"
    },
    {
      "inputs": [
        {
          "internalType": "address",
          "name": "owner",
          "type": "address"
        },
        {
          "internalType": "uint256",
          "name": "index",
          "type": "uint256"
        }
      ],
      "name": "tokenOfOwnerByIndex",
      "outputs": [
        {
          "internalType": "uint256",
          "name": "",
          "type": "uint256"
        }
      ],
      "stateMutability": "view",
      "type": "function"
    },
    {
      "inputs": [
        {
          "internalType": "uint256",
          "name": "_tokenId",
          "type": "uint256"
        }
      ],
      "name": "tokenURI",
      "outputs": [
        {
          "internalType": "string",
          "name": "",
          "type": "string"
        }
      ],
      "stateMutability": "view",
      "type": "function"
    },
    {
      "inputs": [],
      "name": "totalSupply",
      "outputs": [
        {
          "internalType": "uint256",
          "name": "",
          "type": "uint256"
        }
      ],
      "stateMutability": "view",
      "type": "function"
    },
    {
      "inputs": [
        {
          "internalType": "address",
          "name": "from",
          "type": "address"
        },
        {
          "internalType": "address",
          "name": "to",
          "type": "address"
        },
        {
          "internalType": "uint256",
          "name": "tokenId",
          "type": "uint256"
        }
      ],
      "name": "transferFrom",
      "outputs": [],
      "stateMutability": "nonpayable",
      "type": "function"
    },
    {
      "inputs": [
        {
          "internalType": "uint256",
          "name": "_uploadId",
          "type": "uint256"
        },
        {
          "internalType": "string",
          "name": "_url",
          "type": "string"
        },
        {
          "internalType": "string",
          "name": "_uploadDescription",
          "type": "string"
        }
      ],
      "name": "updateUpload",
      "outputs": [],
      "stateMutability": "nonpayable",
      "type": "function"
    },
    {
      "stateMutability": "payable",
      "type": "receive"
    }
  ],
  "transactionHash": "0xea5367c2f4819e725a8f37d7000336a30fd1d586109e56dfecfc9fd8574183ac",
  "args": [],
  "numDeployments": 1,
  "solcInputHash": "ba1516e6c96a80a75f1d0ea9865e546f",
  "bytecode": "0x60806040526000600b553480156200001657600080fd5b50604080518082018252601081526f10d85c985c1858d94814195c9cda5cdd60821b60208083019182528351808501909452600784526614115494d254d560ca1b9084015281519192916200006e916000916200008d565b508051620000849060019060208401906200008d565b50505062000170565b8280546200009b9062000133565b90600052602060002090601f016020900481019282620000bf57600085556200010a565b82601f10620000da57805160ff19168380011785556200010a565b828001600101855582156200010a579182015b828111156200010a578251825591602001919060010190620000ed565b50620001189291506200011c565b5090565b5b808211156200011857600081556001016200011d565b600181811c908216806200014857607f821691505b602082108114156200016a57634e487b7160e01b600052602260045260246000fd5b50919050565b613a3c80620001806000396000f3fe60806040526004361061012e5760003560e01c806370a08231116100ab578063c5b420061161006f578063c5b420061461033f578063c87b56dd1461035f578063d5e350541461037f578063e985e9c5146103ad578063efeb7434146103f6578063fbc7d2691461042357600080fd5b806370a08231146102aa57806395d89b41146102ca578063a22cb465146102df578063aa35a853146102ff578063b88d4fde1461031f57600080fd5b806323b872dd116100f257806323b872dd1461020a5780632f745c591461022a57806342842e0e1461024a5780634f6ccce71461026a5780636352211e1461028a57600080fd5b806301ffc9a71461013a57806306fdde031461016f578063081812fc14610191578063095ea7b3146101c957806318160ddd146101eb57600080fd5b3661013557005b600080fd5b34801561014657600080fd5b5061015a610155366004611da5565b61042b565b60405190151581526020015b60405180910390f35b34801561017b57600080fd5b50610184610456565b6040516101669190611e21565b34801561019d57600080fd5b506101b16101ac366004611e34565b6104e8565b6040516001600160a01b039091168152602001610166565b3480156101d557600080fd5b506101e96101e4366004611e69565b610582565b005b3480156101f757600080fd5b506008545b604051908152602001610166565b34801561021657600080fd5b506101e9610225366004611e93565b610698565b34801561023657600080fd5b506101fc610245366004611e69565b6106c9565b34801561025657600080fd5b506101e9610265366004611e93565b61075f565b34801561027657600080fd5b506101fc610285366004611e34565b61077a565b34801561029657600080fd5b506101b16102a5366004611e34565b61080d565b3480156102b657600080fd5b506101fc6102c5366004611ecf565b610884565b3480156102d657600080fd5b5061018461090b565b3480156102eb57600080fd5b506101e96102fa366004611eea565b61091a565b34801561030b57600080fd5b506101e961031a366004611fd2565b610929565b34801561032b57600080fd5b506101e961033a36600461203f565b61097f565b34801561034b57600080fd5b506101e961035a366004611e34565b6109b7565b34801561036b57600080fd5b5061018461037a366004611e34565b6109ca565b34801561038b57600080fd5b5061039f61039a366004611e34565b610a1f565b6040516101669291906120bb565b3480156103b957600080fd5b5061015a6103c83660046120e9565b6001600160a01b03918216600090815260056020908152604080832093909416825291909152205460ff1690565b34801561040257600080fd5b50610416610411366004611ecf565b610b59565b604051610166919061211c565b6101e9610bfa565b60006001600160e01b0319821663780e9d6360e01b1480610450575061045082610c4b565b92915050565b60606000805461046590612160565b80601f016020809104026020016040519081016040528092919081815260200182805461049190612160565b80156104de5780601f106104b3576101008083540402835291602001916104de565b820191906000526020600020905b8154815290600101906020018083116104c157829003601f168201915b5050505050905090565b6000818152600260205260408120546001600160a01b03166105665760405162461bcd60e51b815260206004820152602c60248201527f4552433732313a20617070726f76656420717565727920666f72206e6f6e657860448201526b34b9ba32b73a103a37b5b2b760a11b60648201526084015b60405180910390fd5b506000908152600460205260409020546001600160a01b031690565b600061058d8261080d565b9050806001600160a01b0316836001600160a01b031614156105fb5760405162461bcd60e51b815260206004820152602160248201527f4552433732313a20617070726f76616c20746f2063757272656e74206f776e656044820152603960f91b606482015260840161055d565b336001600160a01b0382161480610617575061061781336103c8565b6106895760405162461bcd60e51b815260206004820152603860248201527f4552433732313a20617070726f76652063616c6c6572206973206e6f74206f7760448201527f6e6572206e6f7220617070726f76656420666f7220616c6c0000000000000000606482015260840161055d565b6106938383610c9b565b505050565b6106a23382610d09565b6106be5760405162461bcd60e51b815260040161055d90612195565b610693838383610e00565b60006106d483610884565b82106107365760405162461bcd60e51b815260206004820152602b60248201527f455243373231456e756d657261626c653a206f776e657220696e646578206f7560448201526a74206f6620626f756e647360a81b606482015260840161055d565b506001600160a01b03919091166000908152600660209081526040808320938352929052205490565b6106938383836040518060200160405280600081525061097f565b600061078560085490565b82106107e85760405162461bcd60e51b815260206004820152602c60248201527f455243373231456e756d657261626c653a20676c6f62616c20696e646578206f60448201526b7574206f6620626f756e647360a01b606482015260840161055d565b600882815481106107fb576107fb6121e6565b90600052602060002001549050919050565b6000818152600260205260408120546001600160a01b0316806104505760405162461bcd60e51b815260206004820152602960248201527f4552433732313a206f776e657220717565727920666f72206e6f6e657869737460448201526832b73a103a37b5b2b760b91b606482015260840161055d565b60006001600160a01b0382166108ef5760405162461bcd60e51b815260206004820152602a60248201527f4552433732313a2062616c616e636520717565727920666f7220746865207a65604482015269726f206164647265737360b01b606482015260840161055d565b506001600160a01b031660009081526003602052604090205490565b60606001805461046590612160565b610925338383610fa7565b5050565b8261093381611076565b6000848152600a60209081526040909120845161095292860190611cf6565b506000848152600a60209081526040909120835161097892600190920191850190611cf6565b5050505050565b6109893383610d09565b6109a55760405162461bcd60e51b815260040161055d90612195565b6109b1848484846110c4565b50505050565b806109c181611076565b610925826110f7565b6000818152600260205260409020546060906001600160a01b0316610a165760405162461bcd60e51b8152602060048201526002602482015261139560f21b604482015260640161055d565b6104508261119e565b6000818152600a602052604090208054606091829160018201908290610a4490612160565b80601f0160208091040260200160405190810160405280929190818152602001828054610a7090612160565b8015610abd5780601f10610a9257610100808354040283529160200191610abd565b820191906000526020600020905b815481529060010190602001808311610aa057829003601f168201915b50505050509150808054610ad090612160565b80601f0160208091040260200160405190810160405280929190818152602001828054610afc90612160565b8015610b495780601f10610b1e57610100808354040283529160200191610b49565b820191906000526020600020905b815481529060010190602001808311610b2c57829003601f168201915b5050505050905091509150915091565b6060610b6482610884565b67ffffffffffffffff811115610b7c57610b7c611f26565b604051908082528060200260200182016040528015610ba5578160200160208202803683370190505b50905060005b610bb483610884565b811015610bf457610bc583826106c9565b828281518110610bd757610bd76121e6565b602090810291909101015280610bec81612212565b915050610bab565b50919050565b600b54341015610c315760405162461bcd60e51b815260206004820152600260248201526104d560f41b604482015260640161055d565b6000610c3c600c5490565b9050610c483382611210565b50565b60006001600160e01b031982166380ac58cd60e01b1480610c7c57506001600160e01b03198216635b5e139f60e01b145b8061045057506301ffc9a760e01b6001600160e01b0319831614610450565b600081815260046020526040902080546001600160a01b0319166001600160a01b0384169081179091558190610cd08261080d565b6001600160a01b03167f8c5be1e5ebec7d5bd14f71427d1e84f3dd0314c0f7b2291e5b200ac8c7c3b92560405160405180910390a45050565b6000818152600260205260408120546001600160a01b0316610d825760405162461bcd60e51b815260206004820152602c60248201527f4552433732313a206f70657261746f7220717565727920666f72206e6f6e657860448201526b34b9ba32b73a103a37b5b2b760a11b606482015260840161055d565b6000610d8d8361080d565b9050806001600160a01b0316846001600160a01b03161480610dd457506001600160a01b0380821660009081526005602090815260408083209388168352929052205460ff165b80610df85750836001600160a01b0316610ded846104e8565b6001600160a01b0316145b949350505050565b826001600160a01b0316610e138261080d565b6001600160a01b031614610e775760405162461bcd60e51b815260206004820152602560248201527f4552433732313a207472616e736665722066726f6d20696e636f72726563742060448201526437bbb732b960d91b606482015260840161055d565b6001600160a01b038216610ed95760405162461bcd60e51b8152602060048201526024808201527f4552433732313a207472616e7366657220746f20746865207a65726f206164646044820152637265737360e01b606482015260840161055d565b610ee4838383611414565b610eef600082610c9b565b6001600160a01b0383166000908152600360205260408120805460019290610f1890849061222d565b90915550506001600160a01b0382166000908152600360205260408120805460019290610f46908490612244565b909155505060008181526002602052604080822080546001600160a01b0319166001600160a01b0386811691821790925591518493918716917fddf252ad1be2c89b69c2b068fc378daa952ba7f163c4a11628f55a4df523b3ef91a4505050565b816001600160a01b0316836001600160a01b031614156110095760405162461bcd60e51b815260206004820152601960248201527f4552433732313a20617070726f766520746f2063616c6c657200000000000000604482015260640161055d565b6001600160a01b03838116600081815260056020908152604080832094871680845294825291829020805460ff191686151590811790915591519182527f17307eab39ab6107e8899845ad3d59bd9653f200f220920489ca2b5937696c31910160405180910390a3505050565b61107f8161080d565b6001600160a01b0316336001600160a01b031614610c485760405162461bcd60e51b81526020600482015260026024820152614f4f60f01b604482015260640161055d565b6110cf848484610e00565b6110db848484846114cc565b6109b15760405162461bcd60e51b815260040161055d9061225c565b60006111028261080d565b905061111081600084611414565b61111b600083610c9b565b6001600160a01b038116600090815260036020526040812080546001929061114490849061222d565b909155505060008281526002602052604080822080546001600160a01b0319169055518391906001600160a01b038416907fddf252ad1be2c89b69c2b068fc378daa952ba7f163c4a11628f55a4df523b3ef908390a45050565b6000818152600a602052604090206060906111ea9060028101906003016111c4856115ca565b6040516020016111d693929190612348565b60405160208183030381529060405261170a565b6040516020016111fa91906123f6565b6040516020818303038152906040529050919050565b604080516101408101825260006101208201818152825282516020818101855282825283015291810161124284611870565b604051602001611252919061243b565b60405160208183030381529060405281526020016040518060600160405280602e81526020016139d9602e913981526020016112996112946101695a8761196e565b611870565b81526020016112ae611294610169428761196e565b81526020016112c3611294610169438761196e565b81526020016112d8611294610169458761196e565b81526020016112ed6112946101693a8761196e565b90526000838152600a60209081526040909120825180519394508493919261131a92849290910190611cf6565b5060208281015180516113339260018501920190611cf6565b506040820151805161134f916002840191602090910190611cf6565b506060820151805161136b916003840191602090910190611cf6565b5060808201518051611387916004840191602090910190611cf6565b5060a082015180516113a3916005840191602090910190611cf6565b5060c082015180516113bf916006840191602090910190611cf6565b5060e082015180516113db916007840191602090910190611cf6565b5061010082015180516113f8916008840191602090910190611cf6565b5090505061140683836119cb565b610693600c80546001019055565b6001600160a01b03831661146f5761146a81600880546000838152600960205260408120829055600182018355919091527ff3f7a9fe364faab93b216da50a3214154f22a0a2b415b23a84c8169e8b636ee30155565b611492565b816001600160a01b0316836001600160a01b0316146114925761149283826119e5565b6001600160a01b0382166114a95761069381611a82565b826001600160a01b0316826001600160a01b031614610693576106938282611b31565b60006001600160a01b0384163b156115bf57604051630a85bd0160e11b81526001600160a01b0385169063150b7a029061151090339089908890889060040161246c565b6020604051808303816000875af192505050801561154b575060408051601f3d908101601f191682019092526115489181019061249f565b60015b6115a5573d808015611579576040519150601f19603f3d011682016040523d82523d6000602084013e61157e565b606091505b50805161159d5760405162461bcd60e51b815260040161055d9061225c565b805181602001fd5b6001600160e01b031916630a85bd0160e11b149050610df8565b506001949350505050565b6000818152600a602090815260408083209051606093926115f3926007019182918291016124bc565b60408051601f198184030181528282526000868152600a60209081529281209194509261162c9260079092019182918291829101612e38565b60408051601f198184030181529181526000868152600a6020529081209192509060080161165986611870565b6000878152600a60209081526040918290209151611686949392600481019283926005909201910161308a565b60408051601f198184030181528282526000888152600a6020908152928120919450926116be926005830192600601918291016136f1565b6040516020818303038152906040529050838383836040516020016116e694939291906138ce565b60405160208183030381529060405294506117008561170a565b9695505050505050565b606081516000141561172a57505060408051602081019091526000815290565b600060405180606001604052806040815260200161399960409139905060006003845160026117599190612244565b611763919061393b565b61176e90600461394f565b9050600061177d826020612244565b67ffffffffffffffff81111561179557611795611f26565b6040519080825280601f01601f1916602001820160405280156117bf576020820181803683370190505b509050818152600183018586518101602084015b8183101561182b576003830192508251603f8160121c168501518253600182019150603f81600c1c168501518253600182019150603f8160061c168501518253600182019150603f81168501518253506001016117d3565b600389510660018114611845576002811461185657611862565b613d3d60f01b600119830152611862565b603d60f81b6000198301525b509398975050505050505050565b6060816118945750506040805180820190915260018152600360fc1b602082015290565b8160005b81156118be57806118a881612212565b91506118b79050600a8361393b565b9150611898565b60008167ffffffffffffffff8111156118d9576118d9611f26565b6040519080825280601f01601f191660200182016040528015611903576020820181803683370190505b5090505b8415610df85761191860018361222d565b9150611925600a8661396e565b611930906030612244565b60f81b818381518110611945576119456121e6565b60200101906001600160f81b031916908160001a905350611967600a8661393b565b9450611907565b604080514260208201526bffffffffffffffffffffffff193360601b1691810191909152605481018390526074810182905260009084906094016040516020818303038152906040528051906020012060001c610df8919061396e565b610925828260405180602001604052806000815250611b75565b600060016119f284610884565b6119fc919061222d565b600083815260076020526040902054909150808214611a4f576001600160a01b03841660009081526006602090815260408083208584528252808320548484528184208190558352600790915290208190555b5060009182526007602090815260408084208490556001600160a01b039094168352600681528383209183525290812055565b600854600090611a949060019061222d565b60008381526009602052604081205460088054939450909284908110611abc57611abc6121e6565b906000526020600020015490508060088381548110611add57611add6121e6565b6000918252602080832090910192909255828152600990915260408082208490558582528120556008805480611b1557611b15613982565b6001900381819060005260206000200160009055905550505050565b6000611b3c83610884565b6001600160a01b039093166000908152600660209081526040808320868452825280832085905593825260079052919091209190915550565b611b7f8383611ba8565b611b8c60008484846114cc565b6106935760405162461bcd60e51b815260040161055d9061225c565b6001600160a01b038216611bfe5760405162461bcd60e51b815260206004820181905260248201527f4552433732313a206d696e7420746f20746865207a65726f2061646472657373604482015260640161055d565b6000818152600260205260409020546001600160a01b031615611c635760405162461bcd60e51b815260206004820152601c60248201527f4552433732313a20746f6b656e20616c7265616479206d696e74656400000000604482015260640161055d565b611c6f60008383611414565b6001600160a01b0382166000908152600360205260408120805460019290611c98908490612244565b909155505060008181526002602052604080822080546001600160a01b0319166001600160a01b03861690811790915590518392907fddf252ad1be2c89b69c2b068fc378daa952ba7f163c4a11628f55a4df523b3ef908290a45050565b828054611d0290612160565b90600052602060002090601f016020900481019282611d245760008555611d6a565b82601f10611d3d57805160ff1916838001178555611d6a565b82800160010185558215611d6a579182015b82811115611d6a578251825591602001919060010190611d4f565b50611d76929150611d7a565b5090565b5b80821115611d765760008155600101611d7b565b6001600160e01b031981168114610c4857600080fd5b600060208284031215611db757600080fd5b8135611dc281611d8f565b9392505050565b60005b83811015611de4578181015183820152602001611dcc565b838111156109b15750506000910152565b60008151808452611e0d816020860160208601611dc9565b601f01601f19169290920160200192915050565b602081526000611dc26020830184611df5565b600060208284031215611e4657600080fd5b5035919050565b80356001600160a01b0381168114611e6457600080fd5b919050565b60008060408385031215611e7c57600080fd5b611e8583611e4d565b946020939093013593505050565b600080600060608486031215611ea857600080fd5b611eb184611e4d565b9250611ebf60208501611e4d565b9150604084013590509250925092565b600060208284031215611ee157600080fd5b611dc282611e4d565b60008060408385031215611efd57600080fd5b611f0683611e4d565b915060208301358015158114611f1b57600080fd5b809150509250929050565b634e487b7160e01b600052604160045260246000fd5b600067ffffffffffffffff80841115611f5757611f57611f26565b604051601f8501601f19908116603f01168101908282118183101715611f7f57611f7f611f26565b81604052809350858152868686011115611f9857600080fd5b858560208301376000602087830101525050509392505050565b600082601f830112611fc357600080fd5b611dc283833560208501611f3c565b600080600060608486031215611fe757600080fd5b83359250602084013567ffffffffffffffff8082111561200657600080fd5b61201287838801611fb2565b9350604086013591508082111561202857600080fd5b5061203586828701611fb2565b9150509250925092565b6000806000806080858703121561205557600080fd5b61205e85611e4d565b935061206c60208601611e4d565b925060408501359150606085013567ffffffffffffffff81111561208f57600080fd5b8501601f810187136120a057600080fd5b6120af87823560208401611f3c565b91505092959194509250565b6040815260006120ce6040830185611df5565b82810360208401526120e08185611df5565b95945050505050565b600080604083850312156120fc57600080fd5b61210583611e4d565b915061211360208401611e4d565b90509250929050565b6020808252825182820181905260009190848201906040850190845b8181101561215457835183529284019291840191600101612138565b50909695505050505050565b600181811c9082168061217457607f821691505b60208210811415610bf457634e487b7160e01b600052602260045260246000fd5b60208082526031908201527f4552433732313a207472616e736665722063616c6c6572206973206e6f74206f6040820152701ddb995c881b9bdc88185c1c1c9bdd9959607a1b606082015260800190565b634e487b7160e01b600052603260045260246000fd5b634e487b7160e01b600052601160045260246000fd5b6000600019821415612226576122266121fc565b5060010190565b60008282101561223f5761223f6121fc565b500390565b60008219821115612257576122576121fc565b500190565b60208082526032908201527f4552433732313a207472616e7366657220746f206e6f6e20455243373231526560408201527131b2b4bb32b91034b6b83632b6b2b73a32b960711b606082015260800190565b8054600090600181811c90808316806122c857607f831692505b60208084108214156122ea57634e487b7160e01b600052602260045260246000fd5b8180156122fe576001811461230f5761233c565b60ff1986168952848901965061233c565b60008881526020902060005b868110156123345781548b82015290850190830161231b565b505084890196505b50505050505092915050565b683d913730b6b2911d1160b91b8152600061236660098301866122ae565b71111610113232b9b1b934b83a34b7b7111d1160711b815261238b60128201866122ae565b6c1116101134b6b0b3b2911d101160991b81527f646174613a696d6167652f7376672b786d6c3b6261736536342c000000000000600d82015284519091506123da816027840160208801611dc9565b61227d60f01b6027929091019182015260290195945050505050565b7f646174613a6170706c69636174696f6e2f6a736f6e3b6261736536342c00000081526000825161242e81601d850160208701611dc9565b91909101601d0192915050565b6850657273697374202360b81b81526000825161245f816009850160208701611dc9565b9190910160090192915050565b6001600160a01b038581168252841660208201526040810183905260806060820181905260009061170090830184611df5565b6000602082840312156124b157600080fd5b8151611dc281611d8f565b7f3c7376672077696474683d2237393022206865696768743d223830362220766981527f6577426f783d223020302037393020383036222066696c6c3d226e6f6e65222060208201527f786d6c6e733d22687474703a2f2f7777772e77332e6f72672f323030302f737660408201527f67223e3c6d61736b2069643d22706174682d312d696e736964652d315f37313560608201527f5f3832222066696c6c3d227768697465223e3c7265637420783d22313534222060808201527f793d22373234222077696474683d2231363422206865696768743d223832222060a08201526f393c1e91191811179f1e17b6b0b9b59f60811b60c08201527f3c7265637420783d223135342220793d22373234222077696474683d2231363460d08201527f22206865696768743d223832222072783d223230222066696c6c3d2268736c2860f082015260006120e0612e0f612e09612dab6127e561277961277361272461269961262d6101108c018f6122ae565b7f2c20313030252c203830252922207374726f6b653d22626c61636b222073747281527f6f6b652d77696474683d22353022206d61736b3d2275726c2823706174682d3160208201527316b4b739b4b2329698af9b989aaf9c191491179f60611b604082015260540190565b7f3c6d61736b2069643d22706174682d322d696e736964652d325f3731355f383281527f222066696c6c3d227768697465223e3c7265637420783d223530312220793d2260208201527f373234222077696474683d2231363422206865696768743d223832222072783d60408201526c11191811179f1e17b6b0b9b59f60991b6060820152606d0190565b7f3c7265637420783d223530312220793d22373234222077696474683d2231363481527f22206865696768743d223832222072783d223230222066696c6c3d2268736c28602082015260400190565b8a6122ae565b7f2c20313030252c203830252922207374726f6b653d22626c61636b222073747281527f6f6b652d77696474683d22353022206d61736b3d2275726c2823706174682d3260208201527316b4b739b4b23296992f9b989aaf9c191491179f60611b604082015260540190565b7f3c672066696c7465723d2275726c282366696c746572305f645f3731355f383281527f29223e3c7265637420783d223336222077696474683d2237353022206865696760208201527f68743d22373530222072783d223735222066696c6c3d2275726c28237061696e60408201527f74305f6c696e6561725f3731355f383229222073686170652d72656e6465726960608201527f6e673d2263726973704564676573222f3e3c7265637420783d2235332e35222060808201527f793d2231372e35222077696474683d2237313522206865696768743d2237313560a08201527f222072783d2235372e3522207374726f6b653d22626c61636b22207374726f6b60c08201527f652d77696474683d223335222073686170652d72656e646572696e673d22637260e08201527f6973704564676573222f3e3c2f673e3c7265637420783d223135332e352220796101008201527f3d223131372e35222077696474683d2235313522206865696768743d223531356101208201527f222072783d2235372e35222066696c6c3d2275726c28237061696e74315f6c696101408201527f6e6561725f3731355f38322922207374726f6b653d22626c61636b22207374726101608201527f6f6b652d77696474683d223335222f3e3c636972636c652063783d22343131226101808201527f2063793d223337352220723d223133322e35222066696c6c3d2275726c2823706101a08201527f61696e74325f72616469616c5f3731355f38322922207374726f6b653d22626c6101c08201527f61636b22207374726f6b652d77696474683d223335222f3e3c636972636c65206101e08201527f63783d22343131222063793d223337352220723d223435222066696c6c3d22626102008201527f6c61636b222f3e3c6c696e652078313d223431302e35222079313d223336322e6102208201527f35222078323d223431302e35222079323d223230372e3522207374726f6b653d6102408201527f22626c61636b22207374726f6b652d77696474683d22323522207374726f6b656102608201527f2d6c696e656361703d22726f756e64222f3e3c6c696e652078313d2231322e356102808201527f222079313d223236332e35222078323d2231322e35222079323d223131382e356102a08201527f22207374726f6b653d22626c61636b22207374726f6b652d77696474683d22326102c08201527f3522207374726f6b652d6c696e656361703d22726f756e64222f3e3c6c696e656102e08201527f2078313d2231322e35222079313d223631382e35222078323d2231322e3522206103008201527f79323d223437332e3522207374726f6b653d22626c61636b22207374726f6b656103208201527f2d77696474683d22323522207374726f6b652d6c696e656361703d22726f756e6103408201527f64222f3e3c6c696e652078313d223430362e333039222079313d223338372e306103608201527f3735222078323d223237322e303735222079323d223436342e353735222073746103808201527f726f6b653d22626c61636b22207374726f6b652d77696474683d2232352220736103a08201527f74726f6b652d6c696e656361703d22726f756e64222f3e3c6c696e652078313d6103c08201527f223534392e383039222079313d223436342e353735222078323d223431352e356103e08201527f3735222079323d223338372e30373522207374726f6b653d22626c61636b22206104008201527f7374726f6b652d77696474683d22323522207374726f6b652d6c696e656361706104208201527f3d22726f756e64222f3e3c656c6c697073652063783d223138342e35222063796104408201527f3d223134392e353031222072783d2238372e34343139222072793d2238372e346104608201527f343222207472616e73666f726d3d22726f74617465282d38392e3936322031386104808201527f342e35203134392e35303129222066696c6c3d2223303130313031222f3e00006104a08201526104be0190565b7f3c6c696e652078313d223136312e373938222079313d223136372e393032222081527f78323d223138362e323835222079323d223231302e33313622207374726f6b6560208201526507a44d0e6d8560d31b604082015260460190565b856122ae565b7f2c20313030252c203630252922207374726f6b652d77696474683d2234222f3e815260200190565b7f3c6c696e652078313d223230392e313238222079313d223136352e373831222081527f78323d223138342e3634222079323d223230382e31393522207374726f6b653d602082015264044d0e6d8560db1b60408201526000612e9e60458301876122ae565b7f2c20313030252c203630252922207374726f6b652d77696474683d2234222f3e8082527f3c6c696e652078313d223133382e393935222079313d223136362e383037222060208301527f78323d223232392e383839222079323d223136362e38303422207374726f6b6560408301526507a44d0e6d8560d31b6060830152612f2a60668301886122ae565b9081527f3c7061746820643d224d3136312e323433203136362e3934334c3133372e383560208201527f33203132362e3432394c3136312e3234332038352e393136483230382e30323460408201527f4c3233312e343135203132362e3432394c3230382e303234203136362e39343360608201527f483136312e3234335a22207374726f6b653d2268736c280000000000000000006080820152905061307f612e0f613079612fde82609786018a6122ae565b7f3c7061746820643d224d3136312e323433203230392e3332324c3133372e383581527f33203136382e3830384c3136312e323433203132382e323935483230382e303260208201527f344c3233312e343135203136382e3830384c3230382e303234203230392e333260408201527f32483136312e3234335a22207374726f6b653d2268736c280000000000000000606082015260780190565b866122ae565b979650505050505050565b7f3c7465787420746578742d616e63686f723d226d6964646c652220666f6e742d81527f66616d696c793d22436f7572696572204e65772220666f6e742d73697a653d2260208201527f33302220783d223530252220793d22383625222066696c6c3d2268736c28000060408201526000613108605e8301886122ae565b7f2c20313030252c2036302529223e4341524150414345205045525349535420238152865161313e816020840160208b01611dc9565b661e17ba32bc3a1f60c91b910160208101919091527f3c646566733e3c66696c7465722069643d2266696c746572305f645f3731355f60278201527f38322220783d2233322220793d2230222077696474683d22373538222068656960478201527f6768743d22373538222066696c746572556e6974733d2275736572537061636560678201527f4f6e5573652220636f6c6f722d696e746572706f6c6174696f6e2d66696c746560878201527f72733d2273524742223e3c6665466c6f6f6420666c6f6f642d6f70616369747960a78201527f3d22302220726573756c743d224261636b67726f756e64496d6167654669782260c78201527f2f3e3c6665436f6c6f724d617472697820696e3d22536f75726365416c70686160e78201527f2220747970653d226d6174726978222076616c7565733d2230203020302030206101078201527f30203020302030203020302030203020302030203020302030203020313237206101278201527f302220726573756c743d2268617264416c706861222f3e3c66654f66667365746101478201527f2064793d2234222f3e3c6665476175737369616e426c757220737464446576696101678201527f6174696f6e3d2232222f3e3c6665436f6d706f7369746520696e323d226861726101878201527f64416c70686122206f70657261746f723d226f7574222f3e3c6665436f6c6f726101a78201527f4d617472697820747970653d226d6174726978222076616c7565733d223020306101c78201527f20302030203020302030203020302030203020302030203020302030203020306101e78201527f20302e32352030222f3e3c6665426c656e64206d6f64653d226e6f726d616c226102078201527f20696e323d224261636b67726f756e64496d6167654669782220726573756c746102278201527f3d22656666656374315f64726f70536861646f775f3731355f3832222f3e3c666102478201527f65426c656e64206d6f64653d226e6f726d616c2220696e3d22536f75726365476102678201527f7261706869632220696e323d22656666656374315f64726f70536861646f775f6102878201527f3731355f38322220726573756c743d227368617065222f3e00000000000000006102a78201527f3c2f66696c7465723e3c6c696e6561724772616469656e742069643d227061696102bf8201527f6e74305f6c696e6561725f3731355f3832222078313d22343131222079313d226102df8201527f30222078323d22343131222079323d2237353022206772616469656e74556e696102ff820152733a399e913ab9b2b929b830b1b2a7b72ab9b2911f60611b61031f8201526136e56136bc6130796136816135e66135b16135ab61357861355d6135576103338b0175078e6e8dee040e6e8dee05ac6ded8dee47a44d0e6d8560531b815260160190565b8f6122ae565b6e16101898181296101c18129491179f60891b8152600f0190565b7f3c73746f70206f66667365743d2231222073746f702d636f6c6f723d2268736c8152600560fb1b602082015260210190565b8b6122ae565b7f2c20313030252c2038302529222073746f702d6f7061636974793d22302e323681526211179f60e91b602082015260230190565b7f3c2f6c696e6561724772616469656e743e3c6c696e6561724772616469656e7481527f2069643d227061696e74315f6c696e6561725f3731355f3832222078313d223460208201527f3131222079313d22313030222078323d22343131222079323d2236353022206760408201527f72616469656e74556e6974733d227573657253706163654f6e557365223e00006060820152607e0190565b7f3c73746f70206f66667365743d22302e30363534373631222073746f702d636f8152680d8dee47a44d0e6d8560bb1b602082015260290190565b7f2c20313030252c2038302529222073746f702d6f7061636974793d2230222f3e815260200190565b98975050505050505050565b7f3c73746f70206f66667365743d22302e393932353539222073746f702d636f6c81526000670dee47a44d0e6d8560c31b80602084015261373560288401876122ae565b6e16101898181296101c18129491179f60891b81527f3c2f6c696e6561724772616469656e743e3c72616469616c4772616469656e74600f8201527f2069643d227061696e74325f72616469616c5f3731355f3832222063783d2230602f8201527f222063793d22302220723d223122206772616469656e74556e6974733d227573604f8201527f657253706163654f6e55736522206772616469656e745472616e73666f726d3d606f8201527f227472616e736c61746528343131203337352920726f74617465283930292073608f8201526a31b0b63294189a9814911f60a91b60af8201527f3c73746f70206f66667365743d22302e323538313834222073746f702d636f6c60ba82015260da810182905261307f6138a561355d61389f6138656136bc60e287018c6122ae565b7f3c73746f70206f66667365743d22302e393530383933222073746f702d636f6c8152670dee47a44d0e6d8560c31b602082015260280190565b886122ae565b7f3c2f72616469616c4772616469656e743e3c2f646566733e3c2f7376673e00008152601e0190565b600085516138e0818460208a01611dc9565b8551908301906138f4818360208a01611dc9565b8551910190613907818360208901611dc9565b845191019061391a818360208801611dc9565b019695505050505050565b634e487b7160e01b600052601260045260246000fd5b60008261394a5761394a613925565b500490565b6000816000190483118215151615613969576139696121fc565b500290565b60008261397d5761397d613925565b500690565b634e487b7160e01b600052603160045260246000fdfe4142434445464748494a4b4c4d4e4f505152535455565758595a6162636465666768696a6b6c6d6e6f707172737475767778797a303132333435363738392b2f43617261706163652070657273697374656e74206469676974616c206173736574732070726f74656374696f6e2ea264697066735822122023367e6a3778fd323c0d12139a3468a45446e302cfd553fc54ccc6614401735064736f6c634300080b0033",
  "devdoc": {
    "kind": "dev",
    "methods": {
      "approve(address,uint256)": {
        "details": "See {IERC721-approve}."
      },
      "balanceOf(address)": {
        "details": "See {IERC721-balanceOf}."
      },
      "getApproved(uint256)": {
        "details": "See {IERC721-getApproved}."
      },
      "isApprovedForAll(address,address)": {
        "details": "See {IERC721-isApprovedForAll}."
      },
      "name()": {
        "details": "See {IERC721Metadata-name}."
      },
      "ownerOf(uint256)": {
        "details": "See {IERC721-ownerOf}."
      },
      "safeTransferFrom(address,address,uint256)": {
        "details": "See {IERC721-safeTransferFrom}."
      },
      "safeTransferFrom(address,address,uint256,bytes)": {
        "details": "See {IERC721-safeTransferFrom}."
      },
      "setApprovalForAll(address,bool)": {
        "details": "See {IERC721-setApprovalForAll}."
      },
      "supportsInterface(bytes4)": {
        "details": "See {IERC165-supportsInterface}."
      },
      "symbol()": {
        "details": "See {IERC721Metadata-symbol}."
      },
      "tokenByIndex(uint256)": {
        "details": "See {IERC721Enumerable-tokenByIndex}."
      },
      "tokenOfOwnerByIndex(address,uint256)": {
        "details": "See {IERC721Enumerable-tokenOfOwnerByIndex}."
      },
      "tokenURI(uint256)": {
        "details": "s ERC721 tokenURI default function",
        "params": {
          "_tokenId": "Vault ID"
        },
        "returns": {
          "_0": "_tokenURI String that contains the standard metadata for the token ID"
        }
      },
      "totalSupply()": {
        "details": "See {IERC721Enumerable-totalSupply}."
      },
      "transferFrom(address,address,uint256)": {
        "details": "See {IERC721-transferFrom}."
      }
    },
    "title": "??? To be documented",
    "version": 1
  },
  "userdoc": {
    "kind": "user",
    "methods": {
      "createUpload()": {
        "notice": "??? To be documented"
      },
      "deleteFile(uint256)": {
        "notice": "??? To be documented it is not possible to delete files from Arweave burning NFT (the key) it is impossible to decipher the file data "
      },
      "getUploadInfo(uint256)": {
        "notice": "??? To be documented"
      },
      "getUploadsOfOwner(address)": {
        "notice": "??? To be documented"
      },
      "tokenURI(uint256)": {
        "notice": "Returns the token URI for the NFT (vault) with standardized data"
      },
      "updateUpload(uint256,string,string)": {
        "notice": "??? To be documented"
      }
    },
    "notice": "??? To be documented",
    "version": 1
  },
  "storageLayout": {
    "storage": [
      {
        "astId": 25,
        "contract": "contracts/CarapacePersist.sol:CarapacePersist",
        "label": "_name",
        "offset": 0,
        "slot": "0",
        "type": "t_string_storage"
      },
      {
        "astId": 27,
        "contract": "contracts/CarapacePersist.sol:CarapacePersist",
        "label": "_symbol",
        "offset": 0,
        "slot": "1",
        "type": "t_string_storage"
      },
      {
        "astId": 31,
        "contract": "contracts/CarapacePersist.sol:CarapacePersist",
        "label": "_owners",
        "offset": 0,
        "slot": "2",
        "type": "t_mapping(t_uint256,t_address)"
      },
      {
        "astId": 35,
        "contract": "contracts/CarapacePersist.sol:CarapacePersist",
        "label": "_balances",
        "offset": 0,
        "slot": "3",
        "type": "t_mapping(t_address,t_uint256)"
      },
      {
        "astId": 39,
        "contract": "contracts/CarapacePersist.sol:CarapacePersist",
        "label": "_tokenApprovals",
        "offset": 0,
        "slot": "4",
        "type": "t_mapping(t_uint256,t_address)"
      },
      {
        "astId": 45,
        "contract": "contracts/CarapacePersist.sol:CarapacePersist",
        "label": "_operatorApprovals",
        "offset": 0,
        "slot": "5",
        "type": "t_mapping(t_address,t_mapping(t_address,t_bool))"
      },
      {
        "astId": 1014,
        "contract": "contracts/CarapacePersist.sol:CarapacePersist",
        "label": "_ownedTokens",
        "offset": 0,
        "slot": "6",
        "type": "t_mapping(t_address,t_mapping(t_uint256,t_uint256))"
      },
      {
        "astId": 1018,
        "contract": "contracts/CarapacePersist.sol:CarapacePersist",
        "label": "_ownedTokensIndex",
        "offset": 0,
        "slot": "7",
        "type": "t_mapping(t_uint256,t_uint256)"
      },
      {
        "astId": 1021,
        "contract": "contracts/CarapacePersist.sol:CarapacePersist",
        "label": "_allTokens",
        "offset": 0,
        "slot": "8",
        "type": "t_array(t_uint256)dyn_storage"
      },
      {
        "astId": 1025,
        "contract": "contracts/CarapacePersist.sol:CarapacePersist",
        "label": "_allTokensIndex",
        "offset": 0,
        "slot": "9",
        "type": "t_mapping(t_uint256,t_uint256)"
      },
      {
        "astId": 2179,
        "contract": "contracts/CarapacePersist.sol:CarapacePersist",
        "label": "persistUploads",
        "offset": 0,
        "slot": "10",
        "type": "t_mapping(t_uint256,t_struct(persistParams)2174_storage)"
      },
      {
        "astId": 2182,
        "contract": "contracts/CarapacePersist.sol:CarapacePersist",
        "label": "minUploadtPrice",
        "offset": 0,
        "slot": "11",
        "type": "t_uint256"
      },
      {
        "astId": 2185,
        "contract": "contracts/CarapacePersist.sol:CarapacePersist",
        "label": "_tokenIdTracker",
        "offset": 0,
        "slot": "12",
        "type": "t_struct(Counter)1718_storage"
      }
    ],
    "types": {
      "t_address": {
        "encoding": "inplace",
        "label": "address",
        "numberOfBytes": "20"
      },
      "t_array(t_uint256)dyn_storage": {
        "base": "t_uint256",
        "encoding": "dynamic_array",
        "label": "uint256[]",
        "numberOfBytes": "32"
      },
      "t_bool": {
        "encoding": "inplace",
        "label": "bool",
        "numberOfBytes": "1"
      },
      "t_mapping(t_address,t_bool)": {
        "encoding": "mapping",
        "key": "t_address",
        "label": "mapping(address => bool)",
        "numberOfBytes": "32",
        "value": "t_bool"
      },
      "t_mapping(t_address,t_mapping(t_address,t_bool))": {
        "encoding": "mapping",
        "key": "t_address",
        "label": "mapping(address => mapping(address => bool))",
        "numberOfBytes": "32",
        "value": "t_mapping(t_address,t_bool)"
      },
      "t_mapping(t_address,t_mapping(t_uint256,t_uint256))": {
        "encoding": "mapping",
        "key": "t_address",
        "label": "mapping(address => mapping(uint256 => uint256))",
        "numberOfBytes": "32",
        "value": "t_mapping(t_uint256,t_uint256)"
      },
      "t_mapping(t_address,t_uint256)": {
        "encoding": "mapping",
        "key": "t_address",
        "label": "mapping(address => uint256)",
        "numberOfBytes": "32",
        "value": "t_uint256"
      },
      "t_mapping(t_uint256,t_address)": {
        "encoding": "mapping",
        "key": "t_uint256",
        "label": "mapping(uint256 => address)",
        "numberOfBytes": "32",
        "value": "t_address"
      },
      "t_mapping(t_uint256,t_struct(persistParams)2174_storage)": {
        "encoding": "mapping",
        "key": "t_uint256",
        "label": "mapping(uint256 => struct CarapacePersist.persistParams)",
        "numberOfBytes": "32",
        "value": "t_struct(persistParams)2174_storage"
      },
      "t_mapping(t_uint256,t_uint256)": {
        "encoding": "mapping",
        "key": "t_uint256",
        "label": "mapping(uint256 => uint256)",
        "numberOfBytes": "32",
        "value": "t_uint256"
      },
      "t_string_storage": {
        "encoding": "bytes",
        "label": "string",
        "numberOfBytes": "32"
      },
      "t_struct(Counter)1718_storage": {
        "encoding": "inplace",
        "label": "struct Counters.Counter",
        "members": [
          {
            "astId": 1717,
            "contract": "contracts/CarapacePersist.sol:CarapacePersist",
            "label": "_value",
            "offset": 0,
            "slot": "0",
            "type": "t_uint256"
          }
        ],
        "numberOfBytes": "32"
      },
      "t_struct(persistParams)2174_storage": {
        "encoding": "inplace",
        "label": "struct CarapacePersist.persistParams",
        "members": [
          {
            "astId": 2157,
            "contract": "contracts/CarapacePersist.sol:CarapacePersist",
            "label": "url",
            "offset": 0,
            "slot": "0",
            "type": "t_string_storage"
          },
          {
            "astId": 2159,
            "contract": "contracts/CarapacePersist.sol:CarapacePersist",
            "label": "uploadDescription",
            "offset": 0,
            "slot": "1",
            "type": "t_string_storage"
          },
          {
            "astId": 2161,
            "contract": "contracts/CarapacePersist.sol:CarapacePersist",
            "label": "nftName",
            "offset": 0,
            "slot": "2",
            "type": "t_string_storage"
          },
          {
            "astId": 2163,
            "contract": "contracts/CarapacePersist.sol:CarapacePersist",
            "label": "nftDescription",
            "offset": 0,
            "slot": "3",
            "type": "t_string_storage"
          },
          {
            "astId": 2165,
            "contract": "contracts/CarapacePersist.sol:CarapacePersist",
            "label": "bigSqrHue",
            "offset": 0,
            "slot": "4",
            "type": "t_string_storage"
          },
          {
            "astId": 2167,
            "contract": "contracts/CarapacePersist.sol:CarapacePersist",
            "label": "smallSqrHue",
            "offset": 0,
            "slot": "5",
            "type": "t_string_storage"
          },
          {
            "astId": 2169,
            "contract": "contracts/CarapacePersist.sol:CarapacePersist",
            "label": "circleHue",
            "offset": 0,
            "slot": "6",
            "type": "t_string_storage"
          },
          {
            "astId": 2171,
            "contract": "contracts/CarapacePersist.sol:CarapacePersist",
            "label": "feetHue",
            "offset": 0,
            "slot": "7",
            "type": "t_string_storage"
          },
          {
            "astId": 2173,
            "contract": "contracts/CarapacePersist.sol:CarapacePersist",
            "label": "textHue",
            "offset": 0,
            "slot": "8",
            "type": "t_string_storage"
          }
        ],
        "numberOfBytes": "288"
      },
      "t_uint256": {
        "encoding": "inplace",
        "label": "uint256",
        "numberOfBytes": "32"
      }
    }
  }
}